{
  "contractName": "ElectionFactory",
  "abi": [
    {
      "inputs": [],
      "stateMutability": "nonpayable",
      "type": "constructor"
    },
    {
      "anonymous": false,
      "inputs": [
        {
          "indexed": true,
          "internalType": "uint256",
          "name": "electionId",
          "type": "uint256"
        },
        {
          "indexed": true,
          "internalType": "uint256",
          "name": "candidateId",
          "type": "uint256"
        },
        {
          "indexed": false,
          "internalType": "string",
          "name": "name",
          "type": "string"
        }
      ],
      "name": "CandidateAdded",
      "type": "event"
    },
    {
      "anonymous": false,
      "inputs": [
        {
          "indexed": true,
          "internalType": "uint256",
          "name": "electionId",
          "type": "uint256"
        },
        {
          "indexed": true,
          "internalType": "uint256",
          "name": "candidateId",
          "type": "uint256"
        }
      ],
      "name": "CandidateHidden",
      "type": "event"
    },
    {
      "anonymous": false,
      "inputs": [
        {
          "indexed": true,
          "internalType": "uint256",
          "name": "electionId",
          "type": "uint256"
        },
        {
          "indexed": true,
          "internalType": "uint256",
          "name": "candidateId",
          "type": "uint256"
        }
      ],
      "name": "CandidateUnhidden",
      "type": "event"
    },
    {
      "anonymous": false,
      "inputs": [
        {
          "indexed": true,
          "internalType": "uint256",
          "name": "electionId",
          "type": "uint256"
        },
        {
          "indexed": false,
          "internalType": "string",
          "name": "name",
          "type": "string"
        },
        {
          "indexed": false,
          "internalType": "uint256",
          "name": "startDate",
          "type": "uint256"
        },
        {
          "indexed": false,
          "internalType": "uint256",
          "name": "endDate",
          "type": "uint256"
        }
      ],
      "name": "ElectionCreated",
      "type": "event"
    },
    {
      "anonymous": false,
      "inputs": [
        {
          "indexed": true,
          "internalType": "uint256",
          "name": "electionId",
          "type": "uint256"
        }
      ],
      "name": "ElectionHidden",
      "type": "event"
    },
    {
      "anonymous": false,
      "inputs": [
        {
          "indexed": true,
          "internalType": "uint256",
          "name": "electionId",
          "type": "uint256"
        }
      ],
      "name": "ElectionUnhidden",
      "type": "event"
    },
    {
      "anonymous": false,
      "inputs": [
        {
          "indexed": true,
          "internalType": "uint256",
          "name": "electionId",
          "type": "uint256"
        },
        {
          "indexed": true,
          "internalType": "address",
          "name": "voter",
          "type": "address"
        },
        {
          "indexed": false,
          "internalType": "bytes32",
          "name": "commitment",
          "type": "bytes32"
        }
      ],
      "name": "VoteCast",
      "type": "event"
    },
    {
      "inputs": [],
      "name": "electionCount",
      "outputs": [
        {
          "internalType": "uint256",
          "name": "",
          "type": "uint256"
        }
      ],
      "stateMutability": "view",
      "type": "function",
      "constant": true
    },
    {
      "inputs": [
        {
          "internalType": "uint256",
          "name": "",
          "type": "uint256"
        },
        {
          "internalType": "address",
          "name": "",
          "type": "address"
        }
      ],
      "name": "hasVoted",
      "outputs": [
        {
          "internalType": "bool",
          "name": "",
          "type": "bool"
        }
      ],
      "stateMutability": "view",
      "type": "function",
      "constant": true
    },
    {
      "inputs": [],
      "name": "owner",
      "outputs": [
        {
          "internalType": "address",
          "name": "",
          "type": "address"
        }
      ],
      "stateMutability": "view",
      "type": "function",
      "constant": true
    },
    {
      "inputs": [
        {
          "internalType": "uint256",
          "name": "",
          "type": "uint256"
        },
        {
          "internalType": "address",
          "name": "",
          "type": "address"
        }
      ],
      "name": "voteCommitment",
      "outputs": [
        {
          "internalType": "bytes32",
          "name": "",
          "type": "bytes32"
        }
      ],
      "stateMutability": "view",
      "type": "function",
      "constant": true
    },
    {
      "inputs": [
        {
          "internalType": "string",
          "name": "_name",
          "type": "string"
        },
        {
          "internalType": "uint256",
          "name": "_endDate",
          "type": "uint256"
        },
        {
          "internalType": "uint256",
          "name": "_gracePeriod",
          "type": "uint256"
        }
      ],
      "name": "createElection",
      "outputs": [
        {
          "internalType": "uint256",
          "name": "",
          "type": "uint256"
        }
      ],
      "stateMutability": "nonpayable",
      "type": "function"
    },
    {
      "inputs": [
        {
          "internalType": "uint256",
          "name": "_electionId",
          "type": "uint256"
        },
        {
          "internalType": "string",
          "name": "_name",
          "type": "string"
        },
        {
          "internalType": "string",
          "name": "_party",
          "type": "string"
        },
        {
          "internalType": "string",
          "name": "_citizenshipNo",
          "type": "string"
        },
        {
          "internalType": "string",
          "name": "_dob",
          "type": "string"
        },
        {
          "internalType": "string",
          "name": "_img",
          "type": "string"
        },
        {
          "internalType": "string",
          "name": "_email",
          "type": "string"
        }
      ],
      "name": "addCandidate",
      "outputs": [],
      "stateMutability": "nonpayable",
      "type": "function"
    },
    {
      "inputs": [
        {
          "internalType": "uint256",
          "name": "_electionId",
          "type": "uint256"
        },
        {
          "internalType": "uint256",
          "name": "_candidateId",
          "type": "uint256"
        },
        {
          "internalType": "bytes32",
          "name": "_secretSalt",
          "type": "bytes32"
        }
      ],
      "name": "vote",
      "outputs": [],
      "stateMutability": "nonpayable",
      "type": "function"
    },
    {
      "inputs": [
        {
          "internalType": "uint256",
          "name": "_electionId",
          "type": "uint256"
        },
        {
          "internalType": "uint256",
          "name": "_candidateId",
          "type": "uint256"
        },
        {
          "internalType": "bytes32",
          "name": "_secretSalt",
          "type": "bytes32"
        }
      ],
      "name": "revealVote",
      "outputs": [
        {
          "internalType": "bool",
          "name": "",
          "type": "bool"
        }
      ],
      "stateMutability": "view",
      "type": "function",
      "constant": true
    },
    {
      "inputs": [
        {
          "internalType": "uint256",
          "name": "_id",
          "type": "uint256"
        }
      ],
      "name": "hideElection",
      "outputs": [],
      "stateMutability": "nonpayable",
      "type": "function"
    },
    {
      "inputs": [
        {
          "internalType": "uint256",
          "name": "_id",
          "type": "uint256"
        }
      ],
      "name": "unhideElection",
      "outputs": [],
      "stateMutability": "nonpayable",
      "type": "function"
    },
    {
      "inputs": [
        {
          "internalType": "uint256",
          "name": "_eId",
          "type": "uint256"
        },
        {
          "internalType": "uint256",
          "name": "_cId",
          "type": "uint256"
        }
      ],
      "name": "hideCandidate",
      "outputs": [],
      "stateMutability": "nonpayable",
      "type": "function"
    },
    {
      "inputs": [
        {
          "internalType": "uint256",
          "name": "_eId",
          "type": "uint256"
        },
        {
          "internalType": "uint256",
          "name": "_cId",
          "type": "uint256"
        }
      ],
      "name": "unhideCandidate",
      "outputs": [],
      "stateMutability": "nonpayable",
      "type": "function"
    },
    {
      "inputs": [
        {
          "internalType": "uint256",
          "name": "_electionId",
          "type": "uint256"
        }
      ],
      "name": "getElection",
      "outputs": [
        {
          "internalType": "string",
          "name": "name",
          "type": "string"
        },
        {
          "internalType": "uint256",
          "name": "startDate",
          "type": "uint256"
        },
        {
          "internalType": "uint256",
          "name": "endDate",
          "type": "uint256"
        },
        {
          "internalType": "uint256",
          "name": "gracePeriod",
          "type": "uint256"
        },
        {
          "internalType": "uint256",
          "name": "candidateCount",
          "type": "uint256"
        },
        {
          "internalType": "bool",
          "name": "isVotingOpen",
          "type": "bool"
        },
        {
          "internalType": "bool",
          "name": "canViewResults",
          "type": "bool"
        },
        {
          "internalType": "bool",
          "name": "hidden",
          "type": "bool"
        }
      ],
      "stateMutability": "view",
      "type": "function",
      "constant": true
    },
    {
      "inputs": [],
      "name": "getAllElectionIds",
      "outputs": [
        {
          "internalType": "uint256[]",
          "name": "",
          "type": "uint256[]"
        }
      ],
      "stateMutability": "view",
      "type": "function",
      "constant": true
    },
    {
      "inputs": [],
      "name": "getAllElectionIdsAdmin",
      "outputs": [
        {
          "internalType": "uint256[]",
          "name": "",
          "type": "uint256[]"
        }
      ],
      "stateMutability": "view",
      "type": "function",
      "constant": true
    },
    {
      "inputs": [
        {
          "internalType": "uint256",
          "name": "_electionId",
          "type": "uint256"
        },
        {
          "internalType": "uint256",
          "name": "_candidateId",
          "type": "uint256"
        }
      ],
      "name": "getCandidate",
      "outputs": [
        {
          "components": [
            {
              "internalType": "uint256",
              "name": "id",
              "type": "uint256"
            },
            {
              "internalType": "string",
              "name": "name",
              "type": "string"
            },
            {
              "internalType": "string",
              "name": "party",
              "type": "string"
            },
            {
              "internalType": "string",
              "name": "citizenshipNo",
              "type": "string"
            },
            {
              "internalType": "string",
              "name": "dob",
              "type": "string"
            },
            {
              "internalType": "string",
              "name": "img",
              "type": "string"
            },
            {
              "internalType": "string",
              "name": "email",
              "type": "string"
            },
            {
              "internalType": "uint256",
              "name": "voteCount",
              "type": "uint256"
            },
            {
              "internalType": "bool",
              "name": "hidden",
              "type": "bool"
            }
          ],
          "internalType": "struct ElectionFactory.Candidate",
          "name": "",
          "type": "tuple"
        }
      ],
      "stateMutability": "view",
      "type": "function",
      "constant": true
    },
    {
      "inputs": [
        {
          "internalType": "uint256",
          "name": "_electionId",
          "type": "uint256"
        }
      ],
      "name": "getCandidateIds",
      "outputs": [
        {
          "internalType": "uint256[]",
          "name": "",
          "type": "uint256[]"
        }
      ],
      "stateMutability": "view",
      "type": "function",
      "constant": true
    },
    {
      "inputs": [
        {
          "internalType": "uint256",
          "name": "_electionId",
          "type": "uint256"
        }
      ],
      "name": "getAllCandidateIdsAdmin",
      "outputs": [
        {
          "internalType": "uint256[]",
          "name": "",
          "type": "uint256[]"
        }
      ],
      "stateMutability": "view",
      "type": "function",
      "constant": true
    },
    {
      "inputs": [
        {
          "internalType": "uint256",
          "name": "_electionId",
          "type": "uint256"
        }
      ],
      "name": "getCandidatesForElection",
      "outputs": [
        {
          "internalType": "uint256[]",
          "name": "ids",
          "type": "uint256[]"
        },
        {
          "internalType": "string[]",
          "name": "names",
          "type": "string[]"
        },
        {
          "internalType": "string[]",
          "name": "parties",
          "type": "string[]"
        },
        {
          "internalType": "string[]",
          "name": "citizenshipNos",
          "type": "string[]"
        },
        {
          "internalType": "string[]",
          "name": "dobs",
          "type": "string[]"
        },
        {
          "internalType": "string[]",
          "name": "imgs",
          "type": "string[]"
        },
        {
          "internalType": "string[]",
          "name": "emails",
          "type": "string[]"
        },
        {
          "internalType": "uint256[]",
          "name": "voteCounts",
          "type": "uint256[]"
        }
      ],
      "stateMutability": "view",
      "type": "function",
      "constant": true
    },
    {
      "inputs": [
        {
          "internalType": "uint256",
          "name": "_electionId",
          "type": "uint256"
        }
      ],
      "name": "getCandidatesForElectionAdmin",
      "outputs": [
        {
          "internalType": "uint256[]",
          "name": "ids",
          "type": "uint256[]"
        },
        {
          "internalType": "string[]",
          "name": "names",
          "type": "string[]"
        },
        {
          "internalType": "string[]",
          "name": "parties",
          "type": "string[]"
        },
        {
          "internalType": "string[]",
          "name": "citizenshipNos",
          "type": "string[]"
        },
        {
          "internalType": "string[]",
          "name": "dobs",
          "type": "string[]"
        },
        {
          "internalType": "string[]",
          "name": "imgs",
          "type": "string[]"
        },
        {
          "internalType": "string[]",
          "name": "emails",
          "type": "string[]"
        },
        {
          "internalType": "uint256[]",
          "name": "voteCounts",
          "type": "uint256[]"
        },
        {
          "internalType": "bool[]",
          "name": "hiddenFlags",
          "type": "bool[]"
        }
      ],
      "stateMutability": "view",
      "type": "function",
      "constant": true
    }
  ],
  "bytecode": "0x608060405234801561001057600080fd5b50336000806101000a81548173ffffffffffffffffffffffffffffffffffffffff021916908373ffffffffffffffffffffffffffffffffffffffff160217905550614457806100606000396000f3fe608060405234801561001057600080fd5b506004361061012c5760003560e01c80638da5cb5b116100ad578063ced68c4d11610071578063ced68c4d14610387578063dcfad1c7146103a3578063dee40f74146103c1578063f49a7a17146103df578063fbaaa4b81461040f5761012c565b80638da5cb5b146102c8578063905d34a7146102e6578063997d2830146103025780639d71077714610320578063bb45f8df146103575761012c565b80632aa13bcb116100f45780632aa13bcb1461020057806343859632146102305780634bd464481461026057806379fe961f146102905780638c881eeb146102ac5761012c565b80630473ac11146101315780630ea16c7a1461014d57806310540d8b1461017d5780631641aa10146101995780631d2cd644146101d0575b600080fd5b61014b600480360381019061014691906133d6565b610447565b005b610167600480360381019061016291906133d6565b610534565b6040516101749190613c0b565b60405180910390f35b610197600480360381019061019291906133d6565b6106d0565b005b6101b360048036038101906101ae91906133d6565b6107bd565b6040516101c7989796959493929190613c2d565b60405180910390f35b6101ea60048036038101906101e591906135a5565b6112f9565b6040516101f79190613daf565b60405180910390f35b61021a600480360381019061021591906133ff565b611383565b6040516102279190613dca565b60405180910390f35b61024a600480360381019061024591906133ff565b6113a8565b6040516102579190613daf565b60405180910390f35b61027a60048036038101906102759190613569565b6113d7565b6040516102879190613fea565b60405180910390f35b6102aa60048036038101906102a5919061343b565b6117b5565b005b6102c660048036038101906102c191906135a5565b611b29565b005b6102d0611ef5565b6040516102dd9190613bf0565b60405180910390f35b61030060048036038101906102fb9190613569565b611f19565b005b61030a61201c565b604051610317919061400c565b60405180910390f35b61033a600480360381019061033591906133d6565b612022565b60405161034e989796959493929190613e45565b60405180910390f35b610371600480360381019061036c91906133d6565b612136565b60405161037e9190613c0b565b60405180910390f35b6103a1600480360381019061039c9190613569565b6121a1565b005b6103ab6122a4565b6040516103b89190613c0b565b60405180910390f35b6103c9612398565b6040516103d69190613c0b565b60405180910390f35b6103f960048036038101906103f4919061336f565b612512565b604051610406919061400c565b60405180910390f35b610429600480360381019061042491906133d6565b6126c7565b60405161043e99989796959493929190613ce3565b60405180910390f35b60008054906101000a900473ffffffffffffffffffffffffffffffffffffffff1673ffffffffffffffffffffffffffffffffffffffff163373ffffffffffffffffffffffffffffffffffffffff16146104d5576040517f08c379a00000000000000000000000000000000000000000000000000000000081526004016104cc90613f6a565b60405180910390fd5b60006002600083815260200190815260200160002060060160006101000a81548160ff021916908315150217905550807ff92e3e527387fe29cbe08f56a59d847fe05f05cf47ec4290ea026306d42dbf6760405160405180910390a250565b60606000600260008481526020019081526020016000209050600080600190505b826005015481116105ac5782600701600082815260200190815260200160002060080160009054906101000a900460ff16610599578180610595906142b0565b9250505b80806105a4906142b0565b915050610555565b5060008167ffffffffffffffff8111156105ef577f4e487b7100000000000000000000000000000000000000000000000000000000600052604160045260246000fd5b60405190808252806020026020018201604052801561061d5781602001602082028036833780820191505090505b509050600080600190505b846005015481116106c35784600701600082815260200190815260200160002060080160009054906101000a900460ff166106b0578083838061066a906142b0565b9450815181106106a3577f4e487b7100000000000000000000000000000000000000000000000000000000600052603260045260246000fd5b6020026020010181815250505b80806106bb906142b0565b915050610628565b5081945050505050919050565b60008054906101000a900473ffffffffffffffffffffffffffffffffffffffff1673ffffffffffffffffffffffffffffffffffffffff163373ffffffffffffffffffffffffffffffffffffffff161461075e576040517f08c379a000000000000000000000000000000000000000000000000000000000815260040161075590613f6a565b60405180910390fd5b60016002600083815260200190815260200160002060060160006101000a81548160ff021916908315150217905550807f035ea23b6e331059f7cc9c290eb9bb56307fcae6fb0e50d26558e22fb0e43adc60405160405180910390a250565b6060806060806060806060806000600260008b8152602001908152602001600020905060008a1180156107f257506001548a11155b610831576040517f08c379a000000000000000000000000000000000000000000000000000000000815260040161082890613faa565b60405180910390fd5b6000805b600360008d8152602001908152602001600020805490508110156108fa576000600360008e815260200190815260200160002082815481106108a0577f4e487b7100000000000000000000000000000000000000000000000000000000600052603260045260246000fd5b9060005260206000200154905083600701600082815260200190815260200160002060080160009054906101000a900460ff166108e65782806108e2906142b0565b9350505b5080806108f2906142b0565b915050610835565b508067ffffffffffffffff81111561093b577f4e487b7100000000000000000000000000000000000000000000000000000000600052604160045260246000fd5b6040519080825280602002602001820160405280156109695781602001602082028036833780820191505090505b5099508067ffffffffffffffff8111156109ac577f4e487b7100000000000000000000000000000000000000000000000000000000600052604160045260246000fd5b6040519080825280602002602001820160405280156109df57816020015b60608152602001906001900390816109ca5790505b5098508067ffffffffffffffff811115610a22577f4e487b7100000000000000000000000000000000000000000000000000000000600052604160045260246000fd5b604051908082528060200260200182016040528015610a5557816020015b6060815260200190600190039081610a405790505b5097508067ffffffffffffffff811115610a98577f4e487b7100000000000000000000000000000000000000000000000000000000600052604160045260246000fd5b604051908082528060200260200182016040528015610acb57816020015b6060815260200190600190039081610ab65790505b5096508067ffffffffffffffff811115610b0e577f4e487b7100000000000000000000000000000000000000000000000000000000600052604160045260246000fd5b604051908082528060200260200182016040528015610b4157816020015b6060815260200190600190039081610b2c5790505b5095508067ffffffffffffffff811115610b84577f4e487b7100000000000000000000000000000000000000000000000000000000600052604160045260246000fd5b604051908082528060200260200182016040528015610bb757816020015b6060815260200190600190039081610ba25790505b5094508067ffffffffffffffff811115610bfa577f4e487b7100000000000000000000000000000000000000000000000000000000600052604160045260246000fd5b604051908082528060200260200182016040528015610c2d57816020015b6060815260200190600190039081610c185790505b5093508067ffffffffffffffff811115610c70577f4e487b7100000000000000000000000000000000000000000000000000000000600052604160045260246000fd5b604051908082528060200260200182016040528015610c9e5781602001602082028036833780820191505090505b5092506000805b600360008e8152602001908152602001600020805490508110156112ea576000600360008f81526020019081526020016000208281548110610d10577f4e487b7100000000000000000000000000000000000000000000000000000000600052603260045260246000fd5b90600052602060002001549050600085600701600083815260200190815260200160002090508060080160009054906101000a900460ff166112d55780600001548e8581518110610d8a577f4e487b7100000000000000000000000000000000000000000000000000000000600052603260045260246000fd5b602002602001018181525050806001018054610da59061427e565b80601f0160208091040260200160405190810160405280929190818152602001828054610dd19061427e565b8015610e1e5780601f10610df357610100808354040283529160200191610e1e565b820191906000526020600020905b815481529060010190602001808311610e0157829003601f168201915b50505050508d8581518110610e5c577f4e487b7100000000000000000000000000000000000000000000000000000000600052603260045260246000fd5b6020026020010181905250806002018054610e769061427e565b80601f0160208091040260200160405190810160405280929190818152602001828054610ea29061427e565b8015610eef5780601f10610ec457610100808354040283529160200191610eef565b820191906000526020600020905b815481529060010190602001808311610ed257829003601f168201915b50505050508c8581518110610f2d577f4e487b7100000000000000000000000000000000000000000000000000000000600052603260045260246000fd5b6020026020010181905250806003018054610f479061427e565b80601f0160208091040260200160405190810160405280929190818152602001828054610f739061427e565b8015610fc05780601f10610f9557610100808354040283529160200191610fc0565b820191906000526020600020905b815481529060010190602001808311610fa357829003601f168201915b50505050508b8581518110610ffe577f4e487b7100000000000000000000000000000000000000000000000000000000600052603260045260246000fd5b60200260200101819052508060040180546110189061427e565b80601f01602080910402602001604051908101604052809291908181526020018280546110449061427e565b80156110915780601f1061106657610100808354040283529160200191611091565b820191906000526020600020905b81548152906001019060200180831161107457829003601f168201915b50505050508a85815181106110cf577f4e487b7100000000000000000000000000000000000000000000000000000000600052603260045260246000fd5b60200260200101819052508060050180546110e99061427e565b80601f01602080910402602001604051908101604052809291908181526020018280546111159061427e565b80156111625780601f1061113757610100808354040283529160200191611162565b820191906000526020600020905b81548152906001019060200180831161114557829003601f168201915b50505050508985815181106111a0577f4e487b7100000000000000000000000000000000000000000000000000000000600052603260045260246000fd5b60200260200101819052508060060180546111ba9061427e565b80601f01602080910402602001604051908101604052809291908181526020018280546111e69061427e565b80156112335780601f1061120857610100808354040283529160200191611233565b820191906000526020600020905b81548152906001019060200180831161121657829003601f168201915b5050505050888581518110611271577f4e487b7100000000000000000000000000000000000000000000000000000000600052603260045260246000fd5b602002602001018190525080600701548785815181106112ba577f4e487b7100000000000000000000000000000000000000000000000000000000600052603260045260246000fd5b60200260200101818152505083806112d1906142b0565b9450505b505080806112e2906142b0565b915050610ca5565b50505050919395975091939597565b6000838333846040516020016113129493929190613ba2565b604051602081830303815290604052805190602001206005600086815260200190815260200160002060003373ffffffffffffffffffffffffffffffffffffffff1673ffffffffffffffffffffffffffffffffffffffff168152602001908152602001600020541490509392505050565b6005602052816000526040600020602052806000526040600020600091509150505481565b60046020528160005260406000206020528060005260406000206000915091509054906101000a900460ff1681565b6113df6131d7565b600260008481526020019081526020016000206007016000838152602001908152602001600020604051806101200160405290816000820154815260200160018201805461142c9061427e565b80601f01602080910402602001604051908101604052809291908181526020018280546114589061427e565b80156114a55780601f1061147a576101008083540402835291602001916114a5565b820191906000526020600020905b81548152906001019060200180831161148857829003601f168201915b505050505081526020016002820180546114be9061427e565b80601f01602080910402602001604051908101604052809291908181526020018280546114ea9061427e565b80156115375780601f1061150c57610100808354040283529160200191611537565b820191906000526020600020905b81548152906001019060200180831161151a57829003601f168201915b505050505081526020016003820180546115509061427e565b80601f016020809104026020016040519081016040528092919081815260200182805461157c9061427e565b80156115c95780601f1061159e576101008083540402835291602001916115c9565b820191906000526020600020905b8154815290600101906020018083116115ac57829003601f168201915b505050505081526020016004820180546115e29061427e565b80601f016020809104026020016040519081016040528092919081815260200182805461160e9061427e565b801561165b5780601f106116305761010080835404028352916020019161165b565b820191906000526020600020905b81548152906001019060200180831161163e57829003601f168201915b505050505081526020016005820180546116749061427e565b80601f01602080910402602001604051908101604052809291908181526020018280546116a09061427e565b80156116ed5780601f106116c2576101008083540402835291602001916116ed565b820191906000526020600020905b8154815290600101906020018083116116d057829003601f168201915b505050505081526020016006820180546117069061427e565b80601f01602080910402602001604051908101604052809291908181526020018280546117329061427e565b801561177f5780601f106117545761010080835404028352916020019161177f565b820191906000526020600020905b81548152906001019060200180831161176257829003601f168201915b50505050508152602001600782015481526020016008820160009054906101000a900460ff161515151581525050905092915050565b60008054906101000a900473ffffffffffffffffffffffffffffffffffffffff1673ffffffffffffffffffffffffffffffffffffffff163373ffffffffffffffffffffffffffffffffffffffff1614611843576040517f08c379a000000000000000000000000000000000000000000000000000000000815260040161183a90613f6a565b60405180910390fd5b600060026000898152602001908152602001600020905060008811801561186c57506001548811155b6118ab576040517f08c379a00000000000000000000000000000000000000000000000000000000081526004016118a290613faa565b60405180910390fd5b8060060160009054906101000a900460ff16156118fd576040517f08c379a00000000000000000000000000000000000000000000000000000000081526004016118f490613f8a565b60405180910390fd5b80600301544210611943576040517f08c379a000000000000000000000000000000000000000000000000000000000815260040161193a90613f4a565b60405180910390fd5b806005016000815480929190611958906142b0565b9190505550604051806101200160405280826005015481526020018881526020018781526020018681526020018581526020018481526020018381526020016000815260200160001515815250816007016000836005015481526020019081526020016000206000820151816000015560208201518160010190805190602001906119e4929190613225565b506040820151816002019080519060200190611a01929190613225565b506060820151816003019080519060200190611a1e929190613225565b506080820151816004019080519060200190611a3b929190613225565b5060a0820151816005019080519060200190611a58929190613225565b5060c0820151816006019080519060200190611a75929190613225565b5060e082015181600701556101008201518160080160006101000a81548160ff02191690831515021790555090505060036000898152602001908152602001600020816005015490806001815401808255809150506001900390600052602060002001600090919091909150558060050154887fed8911b3df733b7d5f75724158e54478ea12e30f49c9d31b5261879f5b76586f89604051611b179190613de5565b60405180910390a35050505050505050565b6000600260008581526020019081526020016000209050600084118015611b5257506001548411155b611b91576040517f08c379a0000000000000000000000000000000000000000000000000000000008152600401611b8890613faa565b60405180910390fd5b8060060160009054906101000a900460ff1615611be3576040517f08c379a0000000000000000000000000000000000000000000000000000000008152600401611bda90613f8a565b60405180910390fd5b80600401548160030154611bf79190614160565b421115611c39576040517f08c379a0000000000000000000000000000000000000000000000000000000008152600401611c3090613eea565b60405180910390fd5b6004600085815260200190815260200160002060003373ffffffffffffffffffffffffffffffffffffffff1673ffffffffffffffffffffffffffffffffffffffff16815260200190815260200160002060009054906101000a900460ff1615611cd7576040517f08c379a0000000000000000000000000000000000000000000000000000000008152600401611cce90613fca565b60405180910390fd5b60008160070160008581526020019081526020016000209050600084118015611d04575081600501548411155b611d43576040517f08c379a0000000000000000000000000000000000000000000000000000000008152600401611d3a90613f2a565b60405180910390fd5b8060080160009054906101000a900460ff1615611d95576040517f08c379a0000000000000000000000000000000000000000000000000000000008152600401611d8c90613eca565b60405180910390fd5b600085853386604051602001611dae9493929190613ba2565b604051602081830303815290604052805190602001209050806005600088815260200190815260200160002060003373ffffffffffffffffffffffffffffffffffffffff1673ffffffffffffffffffffffffffffffffffffffff1681526020019081526020016000208190555060016004600088815260200190815260200160002060003373ffffffffffffffffffffffffffffffffffffffff1673ffffffffffffffffffffffffffffffffffffffff16815260200190815260200160002060006101000a81548160ff021916908315150217905550816007016000815480929190611e99906142b0565b91905055503373ffffffffffffffffffffffffffffffffffffffff16867f38a83bc97fe3c67d89842c1c27a230b6538d70d76059eb5354488ea03ef2426283604051611ee59190613dca565b60405180910390a3505050505050565b60008054906101000a900473ffffffffffffffffffffffffffffffffffffffff1681565b60008054906101000a900473ffffffffffffffffffffffffffffffffffffffff1673ffffffffffffffffffffffffffffffffffffffff163373ffffffffffffffffffffffffffffffffffffffff1614611fa7576040517f08c379a0000000000000000000000000000000000000000000000000000000008152600401611f9e90613f6a565b60405180910390fd5b600160026000848152602001908152602001600020600701600083815260200190815260200160002060080160006101000a81548160ff02191690831515021790555080827f9734f1adb1f9284c48363ce8f7ee6be5bc992087595dcfa6178bcc778438f95a60405160405180910390a35050565b60015481565b6060600080600080600080600080600260008b8152602001908152602001600020905060008160040154826003015461205b9190614160565b42111590508160010182600201548360030154846004015485600501548586158860060160009054906101000a900460ff168780546120999061427e565b80601f01602080910402602001604051908101604052809291908181526020018280546120c59061427e565b80156121125780601f106120e757610100808354040283529160200191612112565b820191906000526020600020905b8154815290600101906020018083116120f557829003601f168201915b50505050509750995099509950995099509950995099505050919395975091939597565b60606003600083815260200190815260200160002080548060200260200160405190810160405280929190818152602001828054801561219557602002820191906000526020600020905b815481526020019060010190808311612181575b50505050509050919050565b60008054906101000a900473ffffffffffffffffffffffffffffffffffffffff1673ffffffffffffffffffffffffffffffffffffffff163373ffffffffffffffffffffffffffffffffffffffff161461222f576040517f08c379a000000000000000000000000000000000000000000000000000000000815260040161222690613f6a565b60405180910390fd5b600060026000848152602001908152602001600020600701600083815260200190815260200160002060080160006101000a81548160ff02191690831515021790555080827f340177443be1953440fbf6fd6642d4c65f687d47a2c5a71cfabd0d585f317b1860405160405180910390a35050565b6060600060015467ffffffffffffffff8111156122ea577f4e487b7100000000000000000000000000000000000000000000000000000000600052604160045260246000fd5b6040519080825280602002602001820160405280156123185781602001602082028036833780820191505090505b5090506000600190505b600154811161239057808260018361233a91906141b6565b81518110612371577f4e487b7100000000000000000000000000000000000000000000000000000000600052603260045260246000fd5b6020026020010181815250508080612388906142b0565b915050612322565b508091505090565b6060600080600190505b60015481116123f5576002600082815260200190815260200160002060060160009054906101000a900460ff166123e25781806123de906142b0565b9250505b80806123ed906142b0565b9150506123a2565b5060008167ffffffffffffffff811115612438577f4e487b7100000000000000000000000000000000000000000000000000000000600052604160045260246000fd5b6040519080825280602002602001820160405280156124665781602001602082028036833780820191505090505b509050600080600190505b6001548111612508576002600082815260200190815260200160002060060160009054906101000a900460ff166124f557808383806124af906142b0565b9450815181106124e8577f4e487b7100000000000000000000000000000000000000000000000000000000600052603260045260246000fd5b6020026020010181815250505b8080612500906142b0565b915050612471565b5081935050505090565b60008060009054906101000a900473ffffffffffffffffffffffffffffffffffffffff1673ffffffffffffffffffffffffffffffffffffffff163373ffffffffffffffffffffffffffffffffffffffff16146125a3576040517f08c379a000000000000000000000000000000000000000000000000000000000815260040161259a90613f6a565b60405180910390fd5b4283116125e5576040517f08c379a00000000000000000000000000000000000000000000000000000000081526004016125dc90613f0a565b60405180910390fd5b600160008154809291906125f8906142b0565b919050555060006002600060015481526020019081526020016000209050600154816000018190555084816001019080519060200190612639929190613225565b504281600201819055508381600301819055508281600401819055506000816005018190555060008160060160006101000a81548160ff0219169083151502179055506001547fe7a0aae5d733e07e246dea86213a1ac1b0aa8554bde889bb75c12752f44e53d98642876040516126b293929190613e07565b60405180910390a26001549150509392505050565b60608060608060608060608060606000600260008c8152602001908152602001600020905060008b1180156126fe57506001548b11155b61273d576040517f08c379a000000000000000000000000000000000000000000000000000000000815260040161273490613faa565b60405180910390fd5b6000816005015490508067ffffffffffffffff811115612786577f4e487b7100000000000000000000000000000000000000000000000000000000600052604160045260246000fd5b6040519080825280602002602001820160405280156127b45781602001602082028036833780820191505090505b509a508067ffffffffffffffff8111156127f7577f4e487b7100000000000000000000000000000000000000000000000000000000600052604160045260246000fd5b60405190808252806020026020018201604052801561282a57816020015b60608152602001906001900390816128155790505b5099508067ffffffffffffffff81111561286d577f4e487b7100000000000000000000000000000000000000000000000000000000600052604160045260246000fd5b6040519080825280602002602001820160405280156128a057816020015b606081526020019060019003908161288b5790505b5098508067ffffffffffffffff8111156128e3577f4e487b7100000000000000000000000000000000000000000000000000000000600052604160045260246000fd5b60405190808252806020026020018201604052801561291657816020015b60608152602001906001900390816129015790505b5097508067ffffffffffffffff811115612959577f4e487b7100000000000000000000000000000000000000000000000000000000600052604160045260246000fd5b60405190808252806020026020018201604052801561298c57816020015b60608152602001906001900390816129775790505b5096508067ffffffffffffffff8111156129cf577f4e487b7100000000000000000000000000000000000000000000000000000000600052604160045260246000fd5b604051908082528060200260200182016040528015612a0257816020015b60608152602001906001900390816129ed5790505b5095508067ffffffffffffffff811115612a45577f4e487b7100000000000000000000000000000000000000000000000000000000600052604160045260246000fd5b604051908082528060200260200182016040528015612a7857816020015b6060815260200190600190039081612a635790505b5094508067ffffffffffffffff811115612abb577f4e487b7100000000000000000000000000000000000000000000000000000000600052604160045260246000fd5b604051908082528060200260200182016040528015612ae95781602001602082028036833780820191505090505b5093508067ffffffffffffffff811115612b2c577f4e487b7100000000000000000000000000000000000000000000000000000000600052604160045260246000fd5b604051908082528060200260200182016040528015612b5a5781602001602082028036833780820191505090505b50925060005b818110156131c7576000600360008f81526020019081526020016000208281548110612bb5577f4e487b7100000000000000000000000000000000000000000000000000000000600052603260045260246000fd5b906000526020600020015490506000846007016000838152602001908152602001600020905080600001548e8481518110612c19577f4e487b7100000000000000000000000000000000000000000000000000000000600052603260045260246000fd5b602002602001018181525050806001018054612c349061427e565b80601f0160208091040260200160405190810160405280929190818152602001828054612c609061427e565b8015612cad5780601f10612c8257610100808354040283529160200191612cad565b820191906000526020600020905b815481529060010190602001808311612c9057829003601f168201915b50505050508d8481518110612ceb577f4e487b7100000000000000000000000000000000000000000000000000000000600052603260045260246000fd5b6020026020010181905250806002018054612d059061427e565b80601f0160208091040260200160405190810160405280929190818152602001828054612d319061427e565b8015612d7e5780601f10612d5357610100808354040283529160200191612d7e565b820191906000526020600020905b815481529060010190602001808311612d6157829003601f168201915b50505050508c8481518110612dbc577f4e487b7100000000000000000000000000000000000000000000000000000000600052603260045260246000fd5b6020026020010181905250806003018054612dd69061427e565b80601f0160208091040260200160405190810160405280929190818152602001828054612e029061427e565b8015612e4f5780601f10612e2457610100808354040283529160200191612e4f565b820191906000526020600020905b815481529060010190602001808311612e3257829003601f168201915b50505050508b8481518110612e8d577f4e487b7100000000000000000000000000000000000000000000000000000000600052603260045260246000fd5b6020026020010181905250806004018054612ea79061427e565b80601f0160208091040260200160405190810160405280929190818152602001828054612ed39061427e565b8015612f205780601f10612ef557610100808354040283529160200191612f20565b820191906000526020600020905b815481529060010190602001808311612f0357829003601f168201915b50505050508a8481518110612f5e577f4e487b7100000000000000000000000000000000000000000000000000000000600052603260045260246000fd5b6020026020010181905250806005018054612f789061427e565b80601f0160208091040260200160405190810160405280929190818152602001828054612fa49061427e565b8015612ff15780601f10612fc657610100808354040283529160200191612ff1565b820191906000526020600020905b815481529060010190602001808311612fd457829003601f168201915b505050505089848151811061302f577f4e487b7100000000000000000000000000000000000000000000000000000000600052603260045260246000fd5b60200260200101819052508060060180546130499061427e565b80601f01602080910402602001604051908101604052809291908181526020018280546130759061427e565b80156130c25780601f10613097576101008083540402835291602001916130c2565b820191906000526020600020905b8154815290600101906020018083116130a557829003601f168201915b5050505050888481518110613100577f4e487b7100000000000000000000000000000000000000000000000000000000600052603260045260246000fd5b60200260200101819052508060070154878481518110613149577f4e487b7100000000000000000000000000000000000000000000000000000000600052603260045260246000fd5b6020026020010181815250508060080160009054906101000a900460ff168684815181106131a0577f4e487b7100000000000000000000000000000000000000000000000000000000600052603260045260246000fd5b602002602001019015159081151581525050505080806131bf906142b0565b915050612b60565b5050509193959799909294969850565b60405180610120016040528060008152602001606081526020016060815260200160608152602001606081526020016060815260200160608152602001600081526020016000151581525090565b8280546132319061427e565b90600052602060002090601f016020900481019282613253576000855561329a565b82601f1061326c57805160ff191683800117855561329a565b8280016001018555821561329a579182015b8281111561329957825182559160200191906001019061327e565b5b5090506132a791906132ab565b5090565b5b808211156132c45760008160009055506001016132ac565b5090565b60006132db6132d684614058565b614027565b9050828152602081018484840111156132f357600080fd5b6132fe84828561423c565b509392505050565b600081359050613315816143dc565b92915050565b60008135905061332a816143f3565b92915050565b600082601f83011261334157600080fd5b81356133518482602086016132c8565b91505092915050565b6000813590506133698161440a565b92915050565b60008060006060848603121561338457600080fd5b600084013567ffffffffffffffff81111561339e57600080fd5b6133aa86828701613330565b93505060206133bb8682870161335a565b92505060406133cc8682870161335a565b9150509250925092565b6000602082840312156133e857600080fd5b60006133f68482850161335a565b91505092915050565b6000806040838503121561341257600080fd5b60006134208582860161335a565b925050602061343185828601613306565b9150509250929050565b600080600080600080600060e0888a03121561345657600080fd5b60006134648a828b0161335a565b975050602088013567ffffffffffffffff81111561348157600080fd5b61348d8a828b01613330565b965050604088013567ffffffffffffffff8111156134aa57600080fd5b6134b68a828b01613330565b955050606088013567ffffffffffffffff8111156134d357600080fd5b6134df8a828b01613330565b945050608088013567ffffffffffffffff8111156134fc57600080fd5b6135088a828b01613330565b93505060a088013567ffffffffffffffff81111561352557600080fd5b6135318a828b01613330565b92505060c088013567ffffffffffffffff81111561354e57600080fd5b61355a8a828b01613330565b91505092959891949750929550565b6000806040838503121561357c57600080fd5b600061358a8582860161335a565b925050602061359b8582860161335a565b9150509250929050565b6000806000606084860312156135ba57600080fd5b60006135c88682870161335a565b93505060206135d98682870161335a565b92505060406135ea8682870161331b565b9150509250925092565b6000613600838361378f565b60208301905092915050565b600061361883836137d3565b905092915050565b600061362c8383613b6d565b60208301905092915050565b613641816141ea565b82525050565b613658613653826141ea565b6142f9565b82525050565b6000613669826140b8565b613673818561410b565b935061367e83614088565b8060005b838110156136af57815161369688826135f4565b97506136a1836140e4565b925050600181019050613682565b5085935050505092915050565b60006136c7826140c3565b6136d1818561411c565b9350836020820285016136e385614098565b8060005b8581101561371f5784840389528151613700858261360c565b945061370b836140f1565b925060208a019950506001810190506136e7565b50829750879550505050505092915050565b600061373c826140ce565b613746818561412d565b9350613751836140a8565b8060005b838110156137825781516137698882613620565b9750613774836140fe565b925050600181019050613755565b5085935050505092915050565b613798816141fc565b82525050565b6137a7816141fc565b82525050565b6137b681614208565b82525050565b6137cd6137c882614208565b61430b565b82525050565b60006137de826140d9565b6137e8818561413e565b93506137f881856020860161424b565b613801816143be565b840191505092915050565b6000613817826140d9565b613821818561414f565b935061383181856020860161424b565b61383a816143be565b840191505092915050565b600061385260138361414f565b91507f43616e6469646174652069732068696464656e000000000000000000000000006000830152602082019050919050565b6000613892600c8361414f565b91507f566f74696e6720656e64656400000000000000000000000000000000000000006000830152602082019050919050565b60006138d260178361414f565b91507f456e642064617465206d757374206265206675747572650000000000000000006000830152602082019050919050565b600061391260118361414f565b91507f496e76616c69642063616e6469646174650000000000000000000000000000006000830152602082019050919050565b600061395260198361414f565b91507f43616e6e6f742061646420616674657220656e642064617465000000000000006000830152602082019050919050565b600061399260098361414f565b91507f4e6f74206f776e657200000000000000000000000000000000000000000000006000830152602082019050919050565b60006139d260128361414f565b91507f456c656374696f6e2069732068696464656e00000000000000000000000000006000830152602082019050919050565b6000613a1260108361414f565b91507f496e76616c696420656c656374696f6e000000000000000000000000000000006000830152602082019050919050565b6000613a5260168361414f565b91507f596f75206861766520616c726561647920766f746564000000000000000000006000830152602082019050919050565b600061012083016000830151613a9e6000860182613b6d565b5060208301518482036020860152613ab682826137d3565b91505060408301518482036040860152613ad082826137d3565b91505060608301518482036060860152613aea82826137d3565b91505060808301518482036080860152613b0482826137d3565b91505060a083015184820360a0860152613b1e82826137d3565b91505060c083015184820360c0860152613b3882826137d3565b91505060e0830151613b4d60e0860182613b6d565b50610100830151613b6261010086018261378f565b508091505092915050565b613b7681614232565b82525050565b613b8581614232565b82525050565b613b9c613b9782614232565b614327565b82525050565b6000613bae8287613b8b565b602082019150613bbe8286613b8b565b602082019150613bce8285613647565b601482019150613bde82846137bc565b60208201915081905095945050505050565b6000602082019050613c056000830184613638565b92915050565b60006020820190508181036000830152613c258184613731565b905092915050565b6000610100820190508181036000830152613c48818b613731565b90508181036020830152613c5c818a6136bc565b90508181036040830152613c7081896136bc565b90508181036060830152613c8481886136bc565b90508181036080830152613c9881876136bc565b905081810360a0830152613cac81866136bc565b905081810360c0830152613cc081856136bc565b905081810360e0830152613cd48184613731565b90509998505050505050505050565b6000610120820190508181036000830152613cfe818c613731565b90508181036020830152613d12818b6136bc565b90508181036040830152613d26818a6136bc565b90508181036060830152613d3a81896136bc565b90508181036080830152613d4e81886136bc565b905081810360a0830152613d6281876136bc565b905081810360c0830152613d7681866136bc565b905081810360e0830152613d8a8185613731565b9050818103610100830152613d9f818461365e565b90509a9950505050505050505050565b6000602082019050613dc4600083018461379e565b92915050565b6000602082019050613ddf60008301846137ad565b92915050565b60006020820190508181036000830152613dff818461380c565b905092915050565b60006060820190508181036000830152613e21818661380c565b9050613e306020830185613b7c565b613e3d6040830184613b7c565b949350505050565b6000610100820190508181036000830152613e60818b61380c565b9050613e6f602083018a613b7c565b613e7c6040830189613b7c565b613e896060830188613b7c565b613e966080830187613b7c565b613ea360a083018661379e565b613eb060c083018561379e565b613ebd60e083018461379e565b9998505050505050505050565b60006020820190508181036000830152613ee381613845565b9050919050565b60006020820190508181036000830152613f0381613885565b9050919050565b60006020820190508181036000830152613f23816138c5565b9050919050565b60006020820190508181036000830152613f4381613905565b9050919050565b60006020820190508181036000830152613f6381613945565b9050919050565b60006020820190508181036000830152613f8381613985565b9050919050565b60006020820190508181036000830152613fa3816139c5565b9050919050565b60006020820190508181036000830152613fc381613a05565b9050919050565b60006020820190508181036000830152613fe381613a45565b9050919050565b600060208201905081810360008301526140048184613a85565b905092915050565b60006020820190506140216000830184613b7c565b92915050565b6000604051905081810181811067ffffffffffffffff8211171561404e5761404d61438f565b5b8060405250919050565b600067ffffffffffffffff8211156140735761407261438f565b5b601f19601f8301169050602081019050919050565b6000819050602082019050919050565b6000819050602082019050919050565b6000819050602082019050919050565b600081519050919050565b600081519050919050565b600081519050919050565b600081519050919050565b6000602082019050919050565b6000602082019050919050565b6000602082019050919050565b600082825260208201905092915050565b600082825260208201905092915050565b600082825260208201905092915050565b600082825260208201905092915050565b600082825260208201905092915050565b600061416b82614232565b915061417683614232565b9250827fffffffffffffffffffffffffffffffffffffffffffffffffffffffffffffffff038211156141ab576141aa614331565b5b828201905092915050565b60006141c182614232565b91506141cc83614232565b9250828210156141df576141de614331565b5b828203905092915050565b60006141f582614212565b9050919050565b60008115159050919050565b6000819050919050565b600073ffffffffffffffffffffffffffffffffffffffff82169050919050565b6000819050919050565b82818337600083830152505050565b60005b8381101561426957808201518184015260208101905061424e565b83811115614278576000848401525b50505050565b6000600282049050600182168061429657607f821691505b602082108114156142aa576142a9614360565b5b50919050565b60006142bb82614232565b91507fffffffffffffffffffffffffffffffffffffffffffffffffffffffffffffffff8214156142ee576142ed614331565b5b600182019050919050565b600061430482614315565b9050919050565b6000819050919050565b6000614320826143cf565b9050919050565b6000819050919050565b7f4e487b7100000000000000000000000000000000000000000000000000000000600052601160045260246000fd5b7f4e487b7100000000000000000000000000000000000000000000000000000000600052602260045260246000fd5b7f4e487b7100000000000000000000000000000000000000000000000000000000600052604160045260246000fd5b6000601f19601f8301169050919050565b60008160601b9050919050565b6143e5816141ea565b81146143f057600080fd5b50565b6143fc81614208565b811461440757600080fd5b50565b61441381614232565b811461441e57600080fd5b5056fea26469706673582212201786c41f41d7d834593dfa8428b31a57dd9bea17046171998507a768d3ba8a7064736f6c63430008000033",
  "immutableReferences": {},
  "source": "//old\r\n// pragma solidity ^0.8.0; // Updated to a more recent version for security\r\n\r\n// contract Election {\r\n//     // Struct for Candidate\r\n//     struct Candidate {\r\n//         uint256 id;\r\n//         string name;\r\n//         string party;\r\n//         string citizenshipNo;\r\n//         string dob;\r\n//         string img;\r\n//         string email;\r\n//         uint256 votecount;\r\n//     }\r\n\r\n//     // Struct for Voter\r\n//     struct Voter {\r\n//         string userHash; // Keccak-256 hash of citizenship_no + email\r\n//         bool registered;\r\n//         string voteHash; // Keccak-256 hash of voter address + candidate ID\r\n//     }\r\n\r\n//     // Candidate count\r\n//     uint256 public candidatesCount;\r\n\r\n//     // Random vote count for demonstration\r\n//     uint256[5] ranvote = [43, 35, 48, 70, 50];\r\n//     uint256 i = 5;\r\n//     uint256 public temp;\r\n\r\n//     // Mappings\r\n//     mapping(uint256 => Candidate) public candidates;\r\n//     mapping(address => Voter) public voters; // Changed from votedornot to store userHash and voteHash\r\n//     mapping(address => bool) public votedornot; // Keep for compatibility\r\n\r\n//     // Constructor\r\n//     constructor() {\r\n//         addCandidates(\r\n//             \"Mahabir Pun\",\r\n//             \"NULL\",\r\n//             \"010570487\",\r\n//             \"22/01/1955\",\r\n//             \"https://res.cloudinary.com/desdvsk3l/image/upload/v1762769358/mahabir_mi3nqc.jpg\",\r\n//             \"mahabirpun@nepal.com\"\r\n//         );\r\n//         addCandidates(\r\n//             \"Sushila Karki\",\r\n//             \"NULL\",\r\n//             \"015678998\",\r\n//             \"07/06/1952\",\r\n//             \"https://res.cloudinary.com/desdvsk3l/image/upload/v1762769357/sushila_sfykit.jpg\",\r\n//             \"sushilakarki@nepal.com\"\r\n//         );\r\n//         addCandidates(\r\n//             \"Balen Shah\",\r\n//             \"NULL\",\r\n//             \"015678795\",\r\n//             \"27/04/1990\",\r\n//             \"https:`//res.cloudinary.com/desdvsk3l/image/upload/v1762769357/balen_s4l7ac.jpg\",\r\n//             \"balenshah@nepal.com\"\r\n//         );\r\n//         addCandidates(\r\n//             \"Rameshwor Prasad Khanal\",\r\n//             \"NULL\",\r\n//             \"015676985\",\r\n//             \"16/06/1956\",\r\n//             \"https://res.cloudinary.com/desdvsk3l/image/upload/v1762769357/Rameshwor_Prasad_Khanal_p2fqhe.jpg\",\r\n//             \"rameshworkhanal@nepal.com\"\r\n//         );\r\n//     }\r\n\r\n//     // Add Candidate\r\n//     function addCandidates(\r\n//         string memory name,\r\n//         string memory party,\r\n//         string memory citizenshipNo,\r\n//         string memory dob,\r\n//         string memory img,\r\n//         string memory email\r\n//     ) public {\r\n//         candidatesCount++;\r\n//         if (i > 0) {\r\n//             temp = ranvote[i - 1];\r\n//             candidates[candidatesCount] = Candidate(candidatesCount, name, party, citizenshipNo, dob, img, email, temp);\r\n//             i--;\r\n//         } else {\r\n//             candidates[candidatesCount] = Candidate(candidatesCount, name, party, citizenshipNo, dob, img, email, 0);\r\n//         }\r\n//     }\r\n\r\n//     // Delete Candidate\r\n//     function delCandidates(uint256 id) public {\r\n//         require(id <= candidatesCount && id > 0, \"Invalid candidate ID\");\r\n//         while (id < candidatesCount) {\r\n//             candidates[id] = candidates[id + 1];\r\n//             id += 1;\r\n//         }\r\n//         delete candidates[candidatesCount];\r\n//         candidatesCount--;\r\n//     }\r\n\r\n//     // Edit Candidate\r\n//     function editCandidates(\r\n//         uint256 id,\r\n//         string memory name,\r\n//         string memory party,\r\n//         string memory citizenshipNo,\r\n//         string memory dob,\r\n//         string memory email\r\n//     ) public {\r\n//         require(id <= candidatesCount && id > 0, \"Invalid candidate ID\");\r\n//         candidates[id].name = name;\r\n//         candidates[id].party = party;\r\n//         candidates[id].citizenshipNo = citizenshipNo;\r\n//         candidates[id].dob = dob;\r\n//         candidates[id].email = email;\r\n//     }\r\n\r\n//     // Register User with Keccak-256 Hash\r\n//     function registerUser(string memory _dataToHash) public {\r\n//         require(!voters[msg.sender].registered, \"User already registered\");\r\n//         bytes32 userHash = keccak256(abi.encodePacked(_dataToHash));\r\n//         voters[msg.sender] = Voter(string(abi.encodePacked(userHash)), true, \"\");\r\n//     }\r\n\r\n//     // Verify User Hash\r\n//     function verifyUser(address _user, string memory _dataToHash) public view returns (bool) {\r\n//         bytes32 userHash = keccak256(abi.encodePacked(_dataToHash));\r\n//         return keccak256(abi.encodePacked(voters[_user].userHash)) == userHash;\r\n//     }\r\n\r\n//     // Vote with Keccak-256 Hash\r\n//     function vote(uint256 _id) public {\r\n//         require(voters[msg.sender].registered, \"User not registered\");\r\n//         require(!votedornot[msg.sender], \"You have already voted\");\r\n//         require(_id <= candidatesCount && _id > 0, \"Invalid candidate ID\");\r\n\r\n//         // Generate vote hash (voter address + candidate ID)\r\n//         bytes32 voteHash = keccak256(abi.encodePacked(msg.sender, _id));\r\n//         voters[msg.sender].voteHash = string(abi.encodePacked(voteHash));\r\n//         votedornot[msg.sender] = true;\r\n//         candidates[_id].votecount += 1;\r\n//     }\r\n\r\n//     // Verify Vote Hash\r\n//     function verifyVote(address _voter, uint256 _candidateId) public view returns (bool) {\r\n//         bytes32 voteHash = keccak256(abi.encodePacked(_voter, _candidateId));\r\n//         return keccak256(abi.encodePacked(voters[_voter].voteHash)) == voteHash;\r\n//     }\r\n// }\r\n\r\n\r\n\r\n// SPDX-License-Identifier: MIT\r\n// pragma solidity ^0.8.0;\r\n\r\n// contract ElectionFactory {\r\n\r\n//     address public owner;\r\n\r\n//     struct Candidate {\r\n//         uint256 id;\r\n//         string name;\r\n//         string party;\r\n//         string citizenshipNo;\r\n//         string dob;\r\n//         string img;\r\n//         string email;\r\n//         uint256 voteCount;\r\n//     }\r\n\r\n//     struct Election {\r\n//         uint256 id;\r\n//         string name;\r\n//         string electionDate; \r\n//         uint256 candidateCount;\r\n//         bool active;\r\n//         mapping(uint256 => Candidate) candidates;\r\n//     }\r\n\r\n//     mapping(uint256 => Election) public elections;\r\n//     uint256 public electionCount;\r\n\r\n//     // Keep track of candidate IDs for each election\r\n//     mapping(uint256 => uint256[]) public electionCandidateIds;\r\n\r\n//     event ElectionCreated(uint256 electionId, string name, string date);\r\n//     event CandidateAdded(uint256 electionId, uint256 candidateId, string name);\r\n//     event ElectionDeleted(uint256 electionId);\r\n\r\n//     modifier onlyOwner() {\r\n//         require(msg.sender == owner, \"Not owner\");\r\n//         _;\r\n//     }\r\n\r\n//     constructor() {\r\n//         owner = msg.sender;\r\n//     }\r\n\r\n//     // Create new election (Only Admin)\r\n//     function createElection(string memory _name, string memory _date) \r\n//         public \r\n//         onlyOwner\r\n//         returns (uint256) \r\n//     {\r\n//         electionCount++;\r\n\r\n//         Election storage newElection = elections[electionCount];\r\n//         newElection.id = electionCount;\r\n//         newElection.name = _name;\r\n//         newElection.electionDate = _date;\r\n//         newElection.candidateCount = 0;\r\n//         newElection.active = true;\r\n\r\n//         emit ElectionCreated(electionCount, _name, _date);\r\n\r\n//         return electionCount;\r\n//     }\r\n\r\n//     // Add a candidate to an election\r\n//     function addCandidate(\r\n//         uint256 _electionId,\r\n//         string memory _name,\r\n//         string memory _party,\r\n//         string memory _citizenshipNo,\r\n//         string memory _dob,\r\n//         string memory _img,\r\n//         string memory _email\r\n//     ) public onlyOwner \r\n//     {\r\n//         require(_electionId > 0 && _electionId <= electionCount, \"Invalid election\");\r\n//         require(elections[_electionId].active, \"Election is not active\");\r\n\r\n//         Election storage election = elections[_electionId];\r\n//         election.candidateCount++;\r\n\r\n//         election.candidates[election.candidateCount] = Candidate(\r\n//             election.candidateCount,\r\n//             _name,\r\n//             _party,\r\n//             _citizenshipNo,\r\n//             _dob,\r\n//             _img,\r\n//             _email,\r\n//             0\r\n//         );\r\n\r\n//         electionCandidateIds[_electionId].push(election.candidateCount);\r\n\r\n//         emit CandidateAdded(_electionId, election.candidateCount, _name);\r\n//     }\r\n\r\n//     // Get election details\r\n//     function getElection(uint256 _electionId) \r\n//         public \r\n//         view \r\n//         returns (\r\n//             string memory name,\r\n//             string memory electionDate,\r\n//             uint256 candidateCount,\r\n//             bool active\r\n//         ) \r\n//     {\r\n//         Election storage e = elections[_electionId];\r\n//         return (e.name, e.electionDate, e.candidateCount, e.active);\r\n//     }\r\n\r\n//     // Get candidate details\r\n//     function getCandidate(uint256 _electionId, uint256 _candidateId)\r\n//         public\r\n//         view\r\n//         returns (\r\n//             string memory name,\r\n//             string memory party,\r\n//             string memory citizenshipNo,\r\n//             string memory dob,\r\n//             string memory img,\r\n//             string memory email,\r\n//             uint256 voteCount\r\n//         )\r\n//     {\r\n//         Candidate memory c = elections[_electionId].candidates[_candidateId];\r\n//         return (c.name, c.party, c.citizenshipNo, c.dob, c.img, c.email, c.voteCount);\r\n//     }\r\n\r\n//     // Return all election IDs\r\n//     function getAllElectionIds() public view returns (uint256[] memory) {\r\n//         uint256[] memory ids = new uint256[](electionCount);\r\n\r\n//         for (uint256 i = 1; i <= electionCount; i++) {\r\n//             ids[i - 1] = i;\r\n//         }\r\n//         return ids;\r\n//     }\r\n\r\n//     // DELETE Election (Soft Delete)\r\n//     function deleteElection(uint256 _electionId) public onlyOwner {\r\n//         require(_electionId > 0 && _electionId <= electionCount, \"Invalid election\");\r\n//         require(elections[_electionId].active, \"Already deleted\");\r\n\r\n//         elections[_electionId].active = false;\r\n\r\n//         emit ElectionDeleted(_electionId);\r\n//     }\r\n// }\r\n\r\n//mid\r\n\r\n// pragma solidity ^0.8.0;\r\n// contract ElectionFactory {\r\n// address public owner;\r\n// struct Candidate {\r\n// uint256 id;\r\n// string name;\r\n// string party;\r\n// string citizenshipNo;\r\n// string dob;\r\n// string img;\r\n// string email;\r\n// uint256 voteCount;\r\n// bool hidden;\r\n//     }\r\n// struct Election {\r\n// uint256 id;\r\n// string name;\r\n// uint256 startDate;\r\n// uint256 endDate;\r\n// uint256 gracePeriod;\r\n// uint256 candidateCount;\r\n// bool hidden;\r\n// mapping(uint256 => Candidate) candidates;\r\n//     }\r\n// uint256 public electionCount;\r\n// mapping(uint256 => Election) private elections;\r\n// mapping(uint256 => uint256[]) private electionCandidateIds;\r\n// // ADD THIS LINE HERE  OUTSIDE ANY FUNCTION\r\n// mapping(uint256 => mapping(address => bool)) public hasVoted;\r\n// // Events\r\n// event ElectionCreated(uint256 indexed electionId, string name, uint256 startDate, uint256 endDate);\r\n// event ElectionHidden(uint256 indexed electionId);\r\n// event ElectionUnhidden(uint256 indexed electionId);\r\n// event CandidateAdded(uint256 indexed electionId, uint256 indexed candidateId, string name);\r\n// event CandidateHidden(uint256 indexed electionId, uint256 indexed candidateId);\r\n// event CandidateUnhidden(uint256 indexed electionId, uint256 indexed candidateId);\r\n// event VoteCast(uint256 indexed electionId, uint256 candidateId);\r\n// modifier onlyOwner() {\r\n// require(msg.sender == owner, \"Not owner\");\r\n//         _;\r\n//     }\r\n// constructor() {\r\n//         owner = msg.sender;\r\n//     }\r\n// // === ALL YOUR FUNCTIONS BELOW (unchanged) ===\r\n// function createElection(string memory _name, uint256 _endDate, uint256 _gracePeriod)\r\n// public onlyOwner returns (uint256) {\r\n// require(_endDate > block.timestamp, \"End date must be future\");\r\n//         electionCount++;\r\n//         Election storage e = elections[electionCount];\r\n//         e.id = electionCount;\r\n//         e.name = _name;\r\n//         e.startDate = block.timestamp;\r\n//         e.endDate = _endDate;\r\n//         e.gracePeriod = _gracePeriod;\r\n//         e.candidateCount = 0;\r\n//         e.hidden = false;\r\n// emit ElectionCreated(electionCount, _name, block.timestamp, _endDate);\r\n// return electionCount;\r\n//     }\r\n// function addCandidate(\r\n// uint256 _electionId,\r\n// string memory _name,\r\n// string memory _party,\r\n// string memory _citizenshipNo,\r\n// string memory _dob,\r\n// string memory _img,\r\n// string memory _email\r\n//     ) public onlyOwner {\r\n//         Election storage e = elections[_electionId];\r\n// require(_electionId > 0 && _electionId <= electionCount, \"Invalid election\");\r\n// require(!e.hidden, \"Election is hidden\");\r\n// require(block.timestamp < e.endDate, \"Cannot add after end date\");\r\n//         e.candidateCount++;\r\n//         e.candidates[e.candidateCount] = Candidate(\r\n//             e.candidateCount,\r\n//             _name,\r\n//             _party,\r\n//             _citizenshipNo,\r\n//             _dob,\r\n//             _img,\r\n//             _email,\r\n// 0,\r\n// false\r\n//         );\r\n//         electionCandidateIds[_electionId].push(e.candidateCount);\r\n// emit CandidateAdded(_electionId, e.candidateCount, _name);\r\n//     }\r\n// function hideElection(uint256 _electionId) external onlyOwner {\r\n// require(_electionId > 0 && _electionId <= electionCount, \"Invalid election\");\r\n//         elections[_electionId].hidden = true;\r\n// emit ElectionHidden(_electionId);\r\n//     }\r\n// function unhideElection(uint256 _electionId) external onlyOwner {\r\n// require(_electionId > 0 && _electionId <= electionCount, \"Invalid election\");\r\n//         elections[_electionId].hidden = false;\r\n// emit ElectionUnhidden(_electionId);\r\n//     }\r\n// function hideCandidate(uint256 _electionId, uint256 _candidateId) external onlyOwner {\r\n//         Election storage e = elections[_electionId];\r\n// require(_electionId > 0 && _electionId <= electionCount, \"Invalid election\");\r\n// require(_candidateId > 0 && _candidateId <= e.candidateCount, \"Invalid candidate\");\r\n//         e.candidates[_candidateId].hidden = true;\r\n// emit CandidateHidden(_electionId, _candidateId);\r\n//     }\r\n// function unhideCandidate(uint256 _electionId, uint256 _candidateId) external onlyOwner {\r\n//         Election storage e = elections[_electionId];\r\n// require(_electionId > 0 && _electionId <= electionCount, \"Invalid election\");\r\n// require(_candidateId > 0 && _candidateId <= e.candidateCount, \"Invalid candidate\");\r\n//         e.candidates[_candidateId].hidden = false;\r\n// emit CandidateUnhidden(_electionId, _candidateId);\r\n//     }\r\n// // FIXED: hasVoted is now properly declared at contract level\r\n// function vote(uint256 _electionId, uint256 _candidateId) public {\r\n//         Election storage e = elections[_electionId];\r\n// require(_electionId > 0 && _electionId <= electionCount, \"Invalid election\");\r\n// require(!e.hidden, \"Election is hidden\");\r\n// require(block.timestamp <= e.endDate + e.gracePeriod, \"Voting ended\");\r\n// require(!hasVoted[_electionId][msg.sender], \"You have already voted\");\r\n//         Candidate storage c = e.candidates[_candidateId];\r\n// require(_candidateId > 0 && _candidateId <= e.candidateCount, \"Invalid candidate\");\r\n// require(!c.hidden, \"Candidate is hidden\");\r\n//         c.voteCount++;\r\n//         hasVoted[_electionId][msg.sender] = true;\r\n// emit VoteCast(_electionId, _candidateId);\r\n//     }\r\n// // === ALL GETTER FUNCTIONS BELOW (100% correct) ===\r\n// function getElection(uint256 _electionId) public view returns (\r\n// string memory name,\r\n// uint256 startDate,\r\n// uint256 endDate,\r\n// uint256 gracePeriod,\r\n// uint256 candidateCount,\r\n// bool isVotingOpen,\r\n// bool canViewResults,\r\n// bool hidden\r\n//     ) {\r\n//         Election storage e = elections[_electionId];\r\n// bool votingOpen = block.timestamp <= e.endDate + e.gracePeriod;\r\n// return (e.name, e.startDate, e.endDate, e.gracePeriod, e.candidateCount, votingOpen, !votingOpen, e.hidden);\r\n//     }\r\n// function getAllElectionIds() public view returns (uint256[] memory) {\r\n// uint256 count = 0;\r\n// for (uint256 i = 1; i <= electionCount; i++) {\r\n// if (!elections[i].hidden) count++;\r\n//         }\r\n// uint256[] memory ids = new uint256[](count);\r\n// uint256 index = 0;\r\n// for (uint256 i = 1; i <= electionCount; i++) {\r\n// if (!elections[i].hidden) ids[index++] = i;\r\n//         }\r\n// return ids;\r\n//     }\r\n// function getAllElectionIdsAdmin() public view returns (uint256[] memory) {\r\n// uint256[] memory ids = new uint256[](electionCount);\r\n// for (uint256 i = 1; i <= electionCount; i++) {\r\n//             ids[i - 1] = i;\r\n//         }\r\n// return ids;\r\n//     }\r\n// function getCandidate(uint256 _electionId, uint256 _candidateId) public view returns (Candidate memory) {\r\n// return elections[_electionId].candidates[_candidateId];\r\n//     }\r\n// function getCandidateIds(uint256 _electionId) public view returns (uint256[] memory) {\r\n//         Election storage e = elections[_electionId];\r\n// uint256 count = 0;\r\n// for (uint256 i = 1; i <= e.candidateCount; i++) {\r\n// if (!e.candidates[i].hidden) count++;\r\n//         }\r\n// uint256[] memory visible = new uint256[](count);\r\n// uint256 index = 0;\r\n// for (uint256 i = 1; i <= e.candidateCount; i++) {\r\n// if (!e.candidates[i].hidden) visible[index++] = i;\r\n//         }\r\n// return visible;\r\n//     }\r\n// function getAllCandidateIdsAdmin(uint256 _electionId) public view returns (uint256[] memory) {\r\n// return electionCandidateIds[_electionId];\r\n//     }\r\n// function getCandidatesForElection(uint256 _electionId) public view\r\n// returns (\r\n// uint256[] memory ids,\r\n// string[] memory names,\r\n// string[] memory parties,\r\n// string[] memory citizenshipNos,\r\n// string[] memory dobs,\r\n// string[] memory imgs,\r\n// string[] memory emails,\r\n// uint256[] memory voteCounts\r\n//     )\r\n// {\r\n//     Election storage e = elections[_electionId];\r\n// require(_electionId > 0 && _electionId <= electionCount, \"Invalid election\");\r\n// // Count only VISIBLE candidates\r\n// uint256 visibleCount = 0;\r\n// for (uint256 i = 0; i < electionCandidateIds[_electionId].length; i++) {\r\n// uint256 candidateId = electionCandidateIds[_electionId][i];\r\n// if (!e.candidates[candidateId].hidden) {\r\n//             visibleCount++;\r\n//         }\r\n//     }\r\n// // Allocate arrays\r\n//     ids = new uint256[](visibleCount);\r\n//     names = new string[](visibleCount);\r\n//     parties = new string[](visibleCount);\r\n//     citizenshipNos = new string[](visibleCount);\r\n//     dobs = new string[](visibleCount);\r\n//     imgs = new string[](visibleCount);\r\n//     emails = new string[](visibleCount);\r\n//     voteCounts = new uint256[](visibleCount);\r\n// uint256 index = 0;\r\n// for (uint256 i = 0; i < electionCandidateIds[_electionId].length; i++) {\r\n// uint256 candidateId = electionCandidateIds[_electionId][i];\r\n//         Candidate storage c = e.candidates[candidateId];\r\n// if (!c.hidden) {\r\n//             ids[index] = c.id;\r\n//             names[index] = c.name;\r\n//             parties[index] = c.party;\r\n//             citizenshipNos[index] = c.citizenshipNo;\r\n//             dobs[index] = c.dob;\r\n//             imgs[index] = c.img;\r\n//             emails[index] = c.email;\r\n//             voteCounts[index] = c.voteCount;\r\n//             index++;\r\n//         }\r\n//     }\r\n// return (ids, names, parties, citizenshipNos, dobs, imgs, emails, voteCounts);\r\n// }\r\n// function getCandidatesForElectionAdmin(uint256 _electionId) public view\r\n// returns (\r\n// uint256[] memory ids,\r\n// string[] memory names,\r\n// string[] memory parties,\r\n// string[] memory citizenshipNos,\r\n// string[] memory dobs,\r\n// string[] memory imgs,\r\n// string[] memory emails,\r\n// uint256[] memory voteCounts,\r\n// bool[] memory hiddenFlags\r\n//         )\r\n//     {\r\n//         Election storage e = elections[_electionId];\r\n// require(_electionId > 0 && _electionId <= electionCount, \"Invalid election\");\r\n// uint256 count = e.candidateCount;\r\n//         ids = new uint256[](count);\r\n//         names = new string[](count);\r\n//         parties = new string[](count);\r\n//         citizenshipNos = new string[](count);\r\n//         dobs = new string[](count);\r\n//         imgs = new string[](count);\r\n//         emails = new string[](count);\r\n//         voteCounts = new uint256[](count);\r\n//         hiddenFlags = new bool[](count);\r\n// for (uint256 i = 0; i < count; i++) {\r\n// uint256 candidateId = electionCandidateIds[_electionId][i];\r\n//             Candidate storage c = e.candidates[candidateId];\r\n//             ids[i] = c.id;\r\n//             names[i] = c.name;\r\n//             parties[i] = c.party;\r\n//             citizenshipNos[i] = c.citizenshipNo;\r\n//             dobs[i] = c.dob;\r\n//             imgs[i] = c.img;\r\n//             emails[i] = c.email;\r\n//             voteCounts[i] = c.voteCount;\r\n//             hiddenFlags[i] = c.hidden;\r\n//         }\r\n// return (ids, names, parties, citizenshipNos, dobs, imgs, emails, voteCounts, hiddenFlags);\r\n//     }\r\n// }\r\n\r\n//new\r\npragma solidity ^0.8.0;\r\n\r\ncontract ElectionFactory {\r\n    address public owner;\r\n\r\n    struct Candidate {\r\n        uint256 id;\r\n        string name;\r\n        string party;\r\n        string citizenshipNo;\r\n        string dob;\r\n        string img;\r\n        string email;\r\n        uint256 voteCount;\r\n        bool hidden;\r\n    }\r\n\r\n    struct Election {\r\n        uint256 id;\r\n        string name;\r\n        uint256 startDate;\r\n        uint256 endDate;\r\n        uint256 gracePeriod;\r\n        uint256 candidateCount;\r\n        bool hidden;\r\n        mapping(uint256 => Candidate) candidates;\r\n    }\r\n\r\n    uint256 public electionCount;\r\n    mapping(uint256 => Election) private elections;\r\n    mapping(uint256 => uint256[]) private electionCandidateIds;\r\n\r\n    // Already in your working version\r\n    mapping(uint256 => mapping(address => bool)) public hasVoted;\r\n\r\n    // ONLY THIS LINE ADDED  PRIVACY LAYER\r\n    mapping(uint256 => mapping(address => bytes32)) public voteCommitment;\r\n\r\n    event ElectionCreated(uint256 indexed electionId, string name, uint256 startDate, uint256 endDate);\r\n    event CandidateAdded(uint256 indexed electionId, uint256 indexed candidateId, string name);\r\n    event VoteCast(uint256 indexed electionId, address indexed voter, bytes32 commitment); // Private!\r\n    event ElectionHidden(uint256 indexed electionId);\r\n    event ElectionUnhidden(uint256 indexed electionId);\r\n    event CandidateHidden(uint256 indexed electionId, uint256 indexed candidateId);\r\n    event CandidateUnhidden(uint256 indexed electionId, uint256 indexed candidateId);\r\n\r\n    modifier onlyOwner() {\r\n        require(msg.sender == owner, \"Not owner\");\r\n        _;\r\n    }\r\n\r\n    constructor() {\r\n        owner = msg.sender;\r\n    }\r\n\r\n    // === 100% YOUR WORKING FUNCTIONS  UNCHANGED ===\r\n    function createElection(string memory _name, uint256 _endDate, uint256 _gracePeriod)\r\n        public onlyOwner returns (uint256) {\r\n        require(_endDate > block.timestamp, \"End date must be future\");\r\n        electionCount++;\r\n        Election storage e = elections[electionCount];\r\n        e.id = electionCount;\r\n        e.name = _name;\r\n        e.startDate = block.timestamp;\r\n        e.endDate = _endDate;\r\n        e.gracePeriod = _gracePeriod;\r\n        e.candidateCount = 0;\r\n        e.hidden = false;\r\n        emit ElectionCreated(electionCount, _name, block.timestamp, _endDate);\r\n        return electionCount;\r\n    }\r\n\r\n    function addCandidate(\r\n        uint256 _electionId,\r\n        string memory _name,\r\n        string memory _party,\r\n        string memory _citizenshipNo,\r\n        string memory _dob,\r\n        string memory _img,\r\n        string memory _email\r\n    ) public onlyOwner {\r\n        Election storage e = elections[_electionId];\r\n        require(_electionId > 0 && _electionId <= electionCount, \"Invalid election\");\r\n        require(!e.hidden, \"Election is hidden\");\r\n        require(block.timestamp < e.endDate, \"Cannot add after end date\");\r\n\r\n        e.candidateCount++;\r\n        e.candidates[e.candidateCount] = Candidate(\r\n            e.candidateCount,\r\n            _name,\r\n            _party,\r\n            _citizenshipNo,\r\n            _dob,\r\n            _img,\r\n            _email,\r\n            0,\r\n            false\r\n        );\r\n        electionCandidateIds[_electionId].push(e.candidateCount);\r\n        emit CandidateAdded(_electionId, e.candidateCount, _name);\r\n    }\r\n\r\n    // === NEW PRIVATE VOTE FUNCTION (replaces old one) ===\r\n    function vote(\r\n        uint256 _electionId,\r\n        uint256 _candidateId,\r\n        bytes32 _secretSalt        //  ONLY NEW PARAMETER\r\n    ) public {\r\n        Election storage e = elections[_electionId];\r\n        require(_electionId > 0 && _electionId <= electionCount, \"Invalid election\");\r\n        require(!e.hidden, \"Election is hidden\");\r\n        require(block.timestamp <= e.endDate + e.gracePeriod, \"Voting ended\");\r\n        require(!hasVoted[_electionId][msg.sender], \"You have already voted\");\r\n\r\n        Candidate storage c = e.candidates[_candidateId];\r\n        require(_candidateId > 0 && _candidateId <= e.candidateCount, \"Invalid candidate\");\r\n        require(!c.hidden, \"Candidate is hidden\");\r\n\r\n        // Create blind commitment\r\n        bytes32 commitment = keccak256(abi.encodePacked(_electionId, _candidateId, msg.sender, _secretSalt));\r\n\r\n        voteCommitment[_electionId][msg.sender] = commitment;\r\n        hasVoted[_electionId][msg.sender] = true;\r\n        c.voteCount++;\r\n\r\n        emit VoteCast(_electionId, msg.sender, commitment); // No one sees candidateId\r\n    }\r\n\r\n    // Optional: Prove your vote later\r\n    function revealVote(uint256 _electionId, uint256 _candidateId, bytes32 _secretSalt)\r\n        public view returns (bool) {\r\n        return voteCommitment[_electionId][msg.sender] ==\r\n            keccak256(abi.encodePacked(_electionId, _candidateId, msg.sender, _secretSalt));\r\n    }\r\n\r\n    // === ALL YOUR ADMIN FUNCTIONS  UNCHANGED ===\r\n    function hideElection(uint256 _id) external onlyOwner { elections[_id].hidden = true; emit ElectionHidden(_id); }\r\n    function unhideElection(uint256 _id) external onlyOwner { elections[_id].hidden = false; emit ElectionUnhidden(_id); }\r\n    function hideCandidate(uint256 _eId, uint256 _cId) external onlyOwner { elections[_eId].candidates[_cId].hidden = true; emit CandidateHidden(_eId, _cId); }\r\n    function unhideCandidate(uint256 _eId, uint256 _cId) external onlyOwner { elections[_eId].candidates[_cId].hidden = false; emit CandidateUnhidden(_eId, _cId); }\r\n\r\n    // === ALL YOUR GETTERS  100% UNCHANGED FROM YOUR WORKING VERSION ===\r\n    //  These compile perfectly in your current setup\r\n    function getElection(uint256 _electionId) public view returns (\r\n        string memory name,\r\n        uint256 startDate,\r\n        uint256 endDate,\r\n        uint256 gracePeriod,\r\n        uint256 candidateCount,\r\n        bool isVotingOpen,\r\n        bool canViewResults,\r\n        bool hidden\r\n    ) {\r\n        Election storage e = elections[_electionId];\r\n        bool votingOpen = block.timestamp <= e.endDate + e.gracePeriod;\r\n        return (e.name, e.startDate, e.endDate, e.gracePeriod, e.candidateCount, votingOpen, !votingOpen, e.hidden);\r\n    }\r\n\r\n    function getAllElectionIds() public view returns (uint256[] memory) {\r\n        uint256 count = 0;\r\n        for (uint256 i = 1; i <= electionCount; i++) {\r\n            if (!elections[i].hidden) count++;\r\n        }\r\n        uint256[] memory ids = new uint256[](count);\r\n        uint256 index = 0;\r\n        for (uint256 i = 1; i <= electionCount; i++) {\r\n            if (!elections[i].hidden) ids[index++] = i;\r\n        }\r\n        return ids;\r\n    }\r\n\r\n    function getAllElectionIdsAdmin() public view returns (uint256[] memory) {\r\n        uint256[] memory ids = new uint256[](electionCount);\r\n        for (uint256 i = 1; i <= electionCount; i++) {\r\n            ids[i - 1] = i;\r\n        }\r\n        return ids;\r\n    }\r\n\r\n    function getCandidate(uint256 _electionId, uint256 _candidateId) public view returns (Candidate memory) {\r\n        return elections[_electionId].candidates[_candidateId];\r\n    }\r\n\r\n    function getCandidateIds(uint256 _electionId) public view returns (uint256[] memory) {\r\n        Election storage e = elections[_electionId];\r\n        uint256 count = 0;\r\n        for (uint256 i = 1; i <= e.candidateCount; i++) {\r\n            if (!e.candidates[i].hidden) count++;\r\n        }\r\n        uint256[] memory visible = new uint256[](count);\r\n        uint256 index = 0;\r\n        for (uint256 i = 1; i <= e.candidateCount; i++) {\r\n            if (!e.candidates[i].hidden) visible[index++] = i;\r\n        }\r\n        return visible;\r\n    }\r\n\r\n    function getAllCandidateIdsAdmin(uint256 _electionId) public view returns (uint256[] memory) {\r\n        return electionCandidateIds[_electionId];\r\n    }\r\n\r\n    // YOUR ORIGINAL GETTERS  DO NOT TOUCH  THEY WORK\r\n    function getCandidatesForElection(uint256 _electionId) public view\r\n        returns (\r\n            uint256[] memory ids,\r\n            string[] memory names,\r\n            string[] memory parties,\r\n            string[] memory citizenshipNos,\r\n            string[] memory dobs,\r\n            string[] memory imgs,\r\n            string[] memory emails,\r\n            uint256[] memory voteCounts\r\n        )\r\n    {\r\n        Election storage e = elections[_electionId];\r\n        require(_electionId > 0 && _electionId <= electionCount, \"Invalid election\");\r\n        uint256 visibleCount = 0;\r\n        for (uint256 i = 0; i < electionCandidateIds[_electionId].length; i++) {\r\n            uint256 candidateId = electionCandidateIds[_electionId][i];\r\n            if (!e.candidates[candidateId].hidden) {\r\n                visibleCount++;\r\n            }\r\n        }\r\n        ids = new uint256[](visibleCount);\r\n        names = new string[](visibleCount);\r\n        parties = new string[](visibleCount);\r\n        citizenshipNos = new string[](visibleCount);\r\n        dobs = new string[](visibleCount);\r\n        imgs = new string[](visibleCount);\r\n        emails = new string[](visibleCount);\r\n        voteCounts = new uint256[](visibleCount);\r\n        uint256 index = 0;\r\n        for (uint256 i = 0; i < electionCandidateIds[_electionId].length; i++) {\r\n            uint256 candidateId = electionCandidateIds[_electionId][i];\r\n            Candidate storage c = e.candidates[candidateId];\r\n            if (!c.hidden) {\r\n                ids[index] = c.id;\r\n                names[index] = c.name;\r\n                parties[index] = c.party;\r\n                citizenshipNos[index] = c.citizenshipNo;\r\n                dobs[index] = c.dob;\r\n                imgs[index] = c.img;\r\n                emails[index] = c.email;\r\n                voteCounts[index] = c.voteCount;\r\n                index++;\r\n            }\r\n        }\r\n    }\r\n\r\n    function getCandidatesForElectionAdmin(uint256 _electionId) public view\r\n        returns (\r\n            uint256[] memory ids,\r\n            string[] memory names,\r\n            string[] memory parties,\r\n            string[] memory citizenshipNos,\r\n            string[] memory dobs,\r\n            string[] memory imgs,\r\n            string[] memory emails,\r\n            uint256[] memory voteCounts,\r\n            bool[] memory hiddenFlags\r\n        )\r\n    {\r\n        Election storage e = elections[_electionId];\r\n        require(_electionId > 0 && _electionId <= electionCount, \"Invalid election\");\r\n        uint256 count = e.candidateCount;\r\n        ids = new uint256[](count);\r\n        names = new string[](count);\r\n        parties = new string[](count);\r\n        citizenshipNos = new string[](count);\r\n        dobs = new string[](count);\r\n        imgs = new string[](count);\r\n        emails = new string[](count);\r\n        voteCounts = new uint256[](count);\r\n        hiddenFlags = new bool[](count);\r\n        for (uint256 i = 0; i < count; i++) {\r\n            uint256 candidateId = electionCandidateIds[_electionId][i];\r\n            Candidate storage c = e.candidates[candidateId];\r\n            ids[i] = c.id;\r\n            names[i] = c.name;\r\n            parties[i] = c.party;\r\n            citizenshipNos[i] = c.citizenshipNo;\r\n            dobs[i] = c.dob;\r\n            imgs[i] = c.img;\r\n            emails[i] = c.email;\r\n            voteCounts[i] = c.voteCount;\r\n            hiddenFlags[i] = c.hidden;\r\n        }\r\n    }\r\n}",
  "sourcePath": "/home/sunil/Desktop/Projects/clz-project/Ethereum-Voting-App/contracts/Election.sol",
  "compiler": {
    "name": "solc",
    "version": "0.8.0+commit.c7dfd78e.Emscripten.clang"
  },
  "schemaVersion": "3.4.16",
  "updatedAt": "2025-11-24T04:23:11.603Z",
  "networkType": "ethereum",
  "devdoc": {
    "kind": "dev",
    "methods": {},
    "version": 1
  },
  "userdoc": {
    "kind": "user",
    "methods": {},
    "version": 1
  }
}